{"abi":[{"type":"constructor","inputs":[{"name":"implementation","type":"address","internalType":"address"},{"name":"factoryOwner","type":"address","internalType":"address"},{"name":"k1Validator","type":"address","internalType":"address"},{"name":"bootstrapper","type":"address","internalType":"contract NexusBootstrap"},{"name":"registry","type":"address","internalType":"contract IERC7484"}],"stateMutability":"nonpayable"},{"type":"function","name":"ACCOUNT_IMPLEMENTATION","inputs":[],"outputs":[{"name":"","type":"address","internalType":"address"}],"stateMutability":"view"},{"type":"function","name":"BOOTSTRAPPER","inputs":[],"outputs":[{"name":"","type":"address","internalType":"contract NexusBootstrap"}],"stateMutability":"view"},{"type":"function","name":"K1_VALIDATOR","inputs":[],"outputs":[{"name":"","type":"address","internalType":"address"}],"stateMutability":"view"},{"type":"function","name":"REGISTRY","inputs":[],"outputs":[{"name":"","type":"address","internalType":"contract IERC7484"}],"stateMutability":"view"},{"type":"function","name":"addStake","inputs":[{"name":"epAddress","type":"address","internalType":"address"},{"name":"unstakeDelaySec","type":"uint32","internalType":"uint32"}],"outputs":[],"stateMutability":"payable"},{"type":"function","name":"cancelOwnershipHandover","inputs":[],"outputs":[],"stateMutability":"payable"},{"type":"function","name":"completeOwnershipHandover","inputs":[{"name":"pendingOwner","type":"address","internalType":"address"}],"outputs":[],"stateMutability":"payable"},{"type":"function","name":"computeAccountAddress","inputs":[{"name":"eoaOwner","type":"address","internalType":"address"},{"name":"index","type":"uint256","internalType":"uint256"},{"name":"attesters","type":"address[]","internalType":"address[]"},{"name":"threshold","type":"uint8","internalType":"uint8"}],"outputs":[{"name":"expectedAddress","type":"address","internalType":"address payable"}],"stateMutability":"view"},{"type":"function","name":"createAccount","inputs":[{"name":"eoaOwner","type":"address","internalType":"address"},{"name":"index","type":"uint256","internalType":"uint256"},{"name":"attesters","type":"address[]","internalType":"address[]"},{"name":"threshold","type":"uint8","internalType":"uint8"}],"outputs":[{"name":"","type":"address","internalType":"address payable"}],"stateMutability":"payable"},{"type":"function","name":"owner","inputs":[],"outputs":[{"name":"result","type":"address","internalType":"address"}],"stateMutability":"view"},{"type":"function","name":"ownershipHandoverExpiresAt","inputs":[{"name":"pendingOwner","type":"address","internalType":"address"}],"outputs":[{"name":"result","type":"uint256","internalType":"uint256"}],"stateMutability":"view"},{"type":"function","name":"renounceOwnership","inputs":[],"outputs":[],"stateMutability":"payable"},{"type":"function","name":"requestOwnershipHandover","inputs":[],"outputs":[],"stateMutability":"payable"},{"type":"function","name":"transferOwnership","inputs":[{"name":"newOwner","type":"address","internalType":"address"}],"outputs":[],"stateMutability":"payable"},{"type":"function","name":"unlockStake","inputs":[{"name":"epAddress","type":"address","internalType":"address"}],"outputs":[],"stateMutability":"nonpayable"},{"type":"function","name":"withdrawStake","inputs":[{"name":"epAddress","type":"address","internalType":"address"},{"name":"withdrawAddress","type":"address","internalType":"address payable"}],"outputs":[],"stateMutability":"nonpayable"},{"type":"event","name":"AccountCreated","inputs":[{"name":"account","type":"address","indexed":true,"internalType":"address"},{"name":"owner","type":"address","indexed":true,"internalType":"address"},{"name":"index","type":"uint256","indexed":true,"internalType":"uint256"}],"anonymous":false},{"type":"event","name":"OwnershipHandoverCanceled","inputs":[{"name":"pendingOwner","type":"address","indexed":true,"internalType":"address"}],"anonymous":false},{"type":"event","name":"OwnershipHandoverRequested","inputs":[{"name":"pendingOwner","type":"address","indexed":true,"internalType":"address"}],"anonymous":false},{"type":"event","name":"OwnershipTransferred","inputs":[{"name":"oldOwner","type":"address","indexed":true,"internalType":"address"},{"name":"newOwner","type":"address","indexed":true,"internalType":"address"}],"anonymous":false},{"type":"error","name":"AlreadyInitialized","inputs":[]},{"type":"error","name":"InnerCallFailed","inputs":[]},{"type":"error","name":"InvalidEntryPointAddress","inputs":[]},{"type":"error","name":"NewOwnerIsZeroAddress","inputs":[]},{"type":"error","name":"NoHandoverRequest","inputs":[]},{"type":"error","name":"Unauthorized","inputs":[]},{"type":"error","name":"ZeroAddressNotAllowed","inputs":[]}],"bytecode":{"object":"0x610100604052348015610010575f5ffd5b5060405161111838038061111883398101604081905261002f91610113565b83610039816100be565b506001600160a01b038516158061005757506001600160a01b038316155b8061006957506001600160a01b038216155b8061007b57506001600160a01b038416155b15610099576040516342bcdf7f60e11b815260040160405180910390fd5b6001600160a01b0394851660805291841660a052831660c05290911660e05250610184565b638b78c6d81980546001600160a01b039092169182907f8be0079c531659141344cd1fd0a4f28419497f9722a3daafe3b4186f6b6457e05f80a38190555b50565b6001600160a01b03811681146100fc575f5ffd5b5f5f5f5f5f60a08688031215610127575f5ffd5b8551610132816100ff565b6020870151909550610143816100ff565b6040870151909450610154816100ff565b6060870151909350610165816100ff565b6080870151909250610176816100ff565b809150509295509295909350565b60805160a05160c05160e051610f3e6101da5f395f8181610104015261046101525f81816101fd015261043101525f818161026f015261037701525f81816101710152818161033101526106330152610f3e5ff3fe6080604052600436106100ef575f3560e01c806367d2d1c911610087578063d0733b3b11610057578063d0733b3b1461025e578063f04e283e14610291578063f2fde38b146102a4578063fee81cf4146102b7575f5ffd5b806367d2d1c9146101ec578063715018a61461021f5780638da5cb5b14610227578063b36f97051461023f575f5ffd5b8063322cc8ca116100c2578063322cc8ca1461019357806345171159146101b25780634a1ce599146101c557806354d1f13d146101e4575f5ffd5b806306433b1b146100f35780630d51f0b7146101435780632569296214610156578063290ab98414610160575b5f5ffd5b3480156100fe575f5ffd5b506101267f000000000000000000000000000000000000000000000000000000000000000081565b6040516001600160a01b0390911681526020015b60405180910390f35b610126610151366004610aeb565b6102f6565b61015e6105ae565b005b34801561016b575f5ffd5b506101267f000000000000000000000000000000000000000000000000000000000000000081565b34801561019e575f5ffd5b506101266101ad366004610aeb565b6105fb565b61015e6101c0366004610b88565b610664565b3480156101d0575f5ffd5b5061015e6101df366004610bc7565b61070d565b61015e61078d565b3480156101f7575f5ffd5b506101267f000000000000000000000000000000000000000000000000000000000000000081565b61015e6107c6565b348015610232575f5ffd5b50638b78c6d81954610126565b34801561024a575f5ffd5b5061015e610259366004610be9565b6107d9565b348015610269575f5ffd5b506101267f000000000000000000000000000000000000000000000000000000000000000081565b61015e61029f366004610bc7565b61087b565b61015e6102b2366004610bc7565b6108b8565b3480156102c2575f5ffd5b506102e86102d1366004610bc7565b63389a75e1600c9081525f91909152602090205490565b60405190815260200161013a565b5f5f8686868686604051602001610311959493929190610c15565b6040516020818303038152906040528051906020012090505f5f610356347f0000000000000000000000000000000000000000000000000000000000000000856108de565b915091505f73__$e80299cacbec5a11ff4d4f929f201a5fa0$__638491599f7f00000000000000000000000000000000000000000000000000000000000000008c6040516020016103bf919060609190911b6bffffffffffffffffffffffff1916815260140190565b6040516020818303038152906040526040518363ffffffff1660e01b81526004016103eb929190610cd0565b5f60405180830381865af4158015610405573d5f5f3e3d5ffd5b505050506040513d5f823e601f3d908101601f1916820160405261042c9190810190610db1565b90505f7f00000000000000000000000000000000000000000000000000000000000000006001600160a01b031663837b892e837f00000000000000000000000000000000000000000000000000000000000000008c8c8c6040518663ffffffff1660e01b81526004016104a3959493929190610e4e565b5f60405180830381865afa1580156104bd573d5f5f3e3d5ffd5b505050506040513d5f823e601f3d908101601f191682016040526104e49190810190610eed565b90508361059f576040517f4b6a14190000000000000000000000000000000000000000000000000000000081526001600160a01b03841690634b6a141990610530908490600401610f1f565b5f604051808303815f87803b158015610547575f5ffd5b505af1158015610559573d5f5f3e3d5ffd5b50505050898b6001600160a01b0316846001600160a01b03167f33310a89c32d8cc00057ad6ef6274d2f8fe22389a992cf89983e09fc84f6cfff60405160405180910390a45b50909998505050505050505050565b5f6202a30067ffffffffffffffff164201905063389a75e1600c52335f52806020600c2055337fdbf36a107da19e49527a7176a1babf963b4b0ff8cde35ee35d6cd8f1f9ac7e1d5f5fa250565b5f5f8686868686604051602001610616959493929190610c15565b6040516020818303038152906040528051906020012090506106597f000000000000000000000000000000000000000000000000000000000000000082306109bc565b979650505050505050565b61066c610a4c565b6001600160a01b038216610693576040516391fdf19160e01b815260040160405180910390fd5b6040517f0396cb6000000000000000000000000000000000000000000000000000000000815263ffffffff821660048201526001600160a01b03831690630396cb609034906024015f604051808303818588803b1580156106f2575f5ffd5b505af1158015610704573d5f5f3e3d5ffd5b50505050505050565b610715610a4c565b6001600160a01b03811661073c576040516391fdf19160e01b815260040160405180910390fd5b806001600160a01b031663bb9fe6bf6040518163ffffffff1660e01b81526004015f604051808303815f87803b158015610774575f5ffd5b505af1158015610786573d5f5f3e3d5ffd5b5050505050565b63389a75e1600c52335f525f6020600c2055337ffa7b8eab7da67f412cc9575ed43464468f9bfbae89d1675917346ca6d8fe3c925f5fa2565b6107ce610a4c565b6107d75f610a66565b565b6107e1610a4c565b6001600160a01b038216610808576040516391fdf19160e01b815260040160405180910390fd5b6040517fc23a5cea0000000000000000000000000000000000000000000000000000000081526001600160a01b03828116600483015283169063c23a5cea906024015f604051808303815f87803b158015610861575f5ffd5b505af1158015610873573d5f5f3e3d5ffd5b505050505050565b610883610a4c565b63389a75e1600c52805f526020600c2080544211156108a957636f5e88185f526004601cfd5b5f90556108b581610a66565b50565b6108c0610a4c565b8060601b6108d557637448fbae5f526004601cfd5b6108b581610a66565b5f5f6040517fcc3735a920a3ca505d382bbc545af43d6000803e6038573d6000fd5b3d6000f36060527f5155f3363d3d373d3d363d7f360894a13ba1a3210667c828492db98dca3e207660405261600960205284601e5268603d3d8160223d3973600a52605f60212060358201523060581b815260ff8153836015820152605581209150813b6109885783605f602188f59150816109835763301164255f526004601cfd5b6109ab565b6001925085156109ab575f385f3889865af16109ab5763b12d13eb5f526004601cfd5b80604052505f606052935093915050565b5f5f610a3685604080517fcc3735a920a3ca505d382bbc545af43d6000803e6038573d6000fd5b3d6000f360609081527f5155f3363d3d373d3d363d7f360894a13ba1a3210667c828492db98dca3e20768352616009602052601e9390935268603d3d8160223d3973600a52605f60212091525f90915290565b9050610a43818585610aa3565b95945050505050565b638b78c6d8195433146107d7576382b429005f526004601cfd5b638b78c6d81980546001600160a01b039092169182907f8be0079c531659141344cd1fd0a4f28419497f9722a3daafe3b4186f6b6457e05f80a355565b5f60ff5f5350603592835260601b60015260155260555f908120915290565b6001600160a01b03811681146108b5575f5ffd5b803560ff81168114610ae6575f5ffd5b919050565b5f5f5f5f5f60808688031215610aff575f5ffd5b8535610b0a81610ac2565b945060208601359350604086013567ffffffffffffffff811115610b2c575f5ffd5b8601601f81018813610b3c575f5ffd5b803567ffffffffffffffff811115610b52575f5ffd5b8860208260051b8401011115610b66575f5ffd5b60209190910193509150610b7c60608701610ad6565b90509295509295909350565b5f5f60408385031215610b99575f5ffd5b8235610ba481610ac2565b9150602083013563ffffffff81168114610bbc575f5ffd5b809150509250929050565b5f60208284031215610bd7575f5ffd5b8135610be281610ac2565b9392505050565b5f5f60408385031215610bfa575f5ffd5b8235610c0581610ac2565b91506020830135610bbc81610ac2565b6bffffffffffffffffffffffff198660601b1681528460148201525f60348201855f5b86811015610c69578135610c4b81610ac2565b6001600160a01b031683526020928301929190910190600101610c38565b505060f89390931b7fff000000000000000000000000000000000000000000000000000000000000001683525050600101949350505050565b5f81518084528060208401602086015e5f602082860101526020601f19601f83011685010191505092915050565b6001600160a01b0383168152604060208201525f610cf16040830184610ca2565b949350505050565b7f4e487b71000000000000000000000000000000000000000000000000000000005f52604160045260245ffd5b5f82601f830112610d35575f5ffd5b815167ffffffffffffffff811115610d4f57610d4f610cf9565b604051601f8201601f19908116603f0116810167ffffffffffffffff81118282101715610d7e57610d7e610cf9565b604052818152838201602001851015610d95575f5ffd5b8160208501602083015e5f918101602001919091529392505050565b5f60208284031215610dc1575f5ffd5b815167ffffffffffffffff811115610dd7575f5ffd5b820160408185031215610de8575f5ffd5b6040805190810167ffffffffffffffff81118282101715610e0b57610e0b610cf9565b6040528151610e1981610ac2565b8152602082015167ffffffffffffffff811115610e34575f5ffd5b610e4086828501610d26565b602083015250949350505050565b608081526001600160a01b0386511660808201525f6020870151604060a0840152610e7c60c0840182610ca2565b6001600160a01b0388166020858101919091528482036040860152868252879250015f5b86811015610ed0578235610eb381610ac2565b6001600160a01b0316825260209283019290910190600101610ea0565b5060ff851660608501529150610ee39050565b9695505050505050565b5f60208284031215610efd575f5ffd5b815167ffffffffffffffff811115610f13575f5ffd5b610cf184828501610d26565b602081525f610be26020830184610ca256fea164736f6c634300081b000a","linkReferences":{"contracts/lib/BootstrapLib.sol":{"BootstrapLib":[{"start":1335,"length":20}]}}},"methodIdentifiers":{"ACCOUNT_IMPLEMENTATION()":"290ab984","BOOTSTRAPPER()":"67d2d1c9","K1_VALIDATOR()":"d0733b3b","REGISTRY()":"06433b1b","addStake(address,uint32)":"45171159","cancelOwnershipHandover()":"54d1f13d","completeOwnershipHandover(address)":"f04e283e","computeAccountAddress(address,uint256,address[],uint8)":"322cc8ca","createAccount(address,uint256,address[],uint8)":"0d51f0b7","owner()":"8da5cb5b","ownershipHandoverExpiresAt(address)":"fee81cf4","renounceOwnership()":"715018a6","requestOwnershipHandover()":"25692962","transferOwnership(address)":"f2fde38b","unlockStake(address)":"4a1ce599","withdrawStake(address,address)":"b36f9705"},"id":9}