{"abi":[{"type":"function","name":"addSafeSender","inputs":[{"name":"sender","type":"address","internalType":"address"}],"outputs":[],"stateMutability":"nonpayable"},{"type":"function","name":"isInitialized","inputs":[{"name":"smartAccount","type":"address","internalType":"address"}],"outputs":[{"name":"","type":"bool","internalType":"bool"}],"stateMutability":"view"},{"type":"function","name":"isModuleType","inputs":[{"name":"typeId","type":"uint256","internalType":"uint256"}],"outputs":[{"name":"","type":"bool","internalType":"bool"}],"stateMutability":"pure"},{"type":"function","name":"isValidSignatureWithSender","inputs":[{"name":"sender","type":"address","internalType":"address"},{"name":"hash","type":"bytes32","internalType":"bytes32"},{"name":"signature","type":"bytes","internalType":"bytes"}],"outputs":[{"name":"sigValidationResult","type":"bytes4","internalType":"bytes4"}],"stateMutability":"view"},{"type":"function","name":"name","inputs":[],"outputs":[{"name":"","type":"string","internalType":"string"}],"stateMutability":"pure"},{"type":"function","name":"onInstall","inputs":[{"name":"data","type":"bytes","internalType":"bytes"}],"outputs":[],"stateMutability":"nonpayable"},{"type":"function","name":"onUninstall","inputs":[{"name":"","type":"bytes","internalType":"bytes"}],"outputs":[],"stateMutability":"nonpayable"},{"type":"function","name":"removeSafeSender","inputs":[{"name":"sender","type":"address","internalType":"address"}],"outputs":[],"stateMutability":"nonpayable"},{"type":"function","name":"smartAccountOwners","inputs":[{"name":"","type":"address","internalType":"address"}],"outputs":[{"name":"","type":"address","internalType":"address"}],"stateMutability":"view"},{"type":"function","name":"supportsNestedTypedDataSign","inputs":[],"outputs":[{"name":"result","type":"bytes32","internalType":"bytes32"}],"stateMutability":"view"},{"type":"function","name":"transferOwnership","inputs":[{"name":"newOwner","type":"address","internalType":"address"}],"outputs":[],"stateMutability":"nonpayable"},{"type":"function","name":"validateSignatureWithData","inputs":[{"name":"hash","type":"bytes32","internalType":"bytes32"},{"name":"sig","type":"bytes","internalType":"bytes"},{"name":"data","type":"bytes","internalType":"bytes"}],"outputs":[{"name":"validSig","type":"bool","internalType":"bool"}],"stateMutability":"view"},{"type":"function","name":"validateUserOp","inputs":[{"name":"userOp","type":"tuple","internalType":"struct PackedUserOperation","components":[{"name":"sender","type":"address","internalType":"address"},{"name":"nonce","type":"uint256","internalType":"uint256"},{"name":"initCode","type":"bytes","internalType":"bytes"},{"name":"callData","type":"bytes","internalType":"bytes"},{"name":"accountGasLimits","type":"bytes32","internalType":"bytes32"},{"name":"preVerificationGas","type":"uint256","internalType":"uint256"},{"name":"gasFees","type":"bytes32","internalType":"bytes32"},{"name":"paymasterAndData","type":"bytes","internalType":"bytes"},{"name":"signature","type":"bytes","internalType":"bytes"}]},{"name":"userOpHash","type":"bytes32","internalType":"bytes32"}],"outputs":[{"name":"","type":"uint256","internalType":"uint256"}],"stateMutability":"view"},{"type":"function","name":"version","inputs":[],"outputs":[{"name":"","type":"string","internalType":"string"}],"stateMutability":"pure"},{"type":"error","name":"InvalidDataLength","inputs":[]},{"type":"error","name":"ModuleAlreadyInitialized","inputs":[]},{"type":"error","name":"NewOwnerIsContract","inputs":[]},{"type":"error","name":"NoOwnerProvided","inputs":[]},{"type":"error","name":"OwnerCannotBeZeroAddress","inputs":[]},{"type":"error","name":"ZeroAddressNotAllowed","inputs":[]}],"bytecode":{"object":"0x6080604052348015600e575f5ffd5b506115e28061001c5f395ff3fe608060405234801561000f575f5ffd5b50600436106100e5575f3560e01c80639700320311610088578063e824b56811610063578063e824b56814610265578063ecd0596114610278578063f2fde38b1461028c578063f551e2ee1461029f575f5ffd5b8063970032031461020b578063d60b347f1461022c578063d620c85a1461023f575f5ffd5b80635c81ca68116100c35780635c81ca68146101ad5780636d61fe70146101c25780638a91b0e3146101d5578063940d3840146101e8575f5ffd5b806306fdde03146100e95780632e5b63a61461013457806354fd4d5014610174575b5f5ffd5b60408051808201909152600b81527f4b3156616c696461746f7200000000000000000000000000000000000000000060208201525b60405161012b9190611057565b60405180910390f35b61015c6101423660046110a3565b5f602081905290815260409020546001600160a01b031681565b6040516001600160a01b03909116815260200161012b565b60408051808201909152600581527f312e302e30000000000000000000000000000000000000000000000000000000602082015261011e565b6101c06101bb3660046110a3565b6102e3565b005b6101c06101d03660046110fc565b6102f3565b6101c06101e33660046110fc565b610446565b6101fb6101f636600461113b565b61047b565b604051901515815260200161012b565b61021e6102193660046111b4565b6104e9565b60405190815260200161012b565b6101fb61023a3660046110a3565b610542565b7fd620c85a0000000000000000000000000000000000000000000000000000000061021e565b6101c06102733660046110a3565b610565565b6101fb6102863660046111fb565b60011490565b6101c061029a3660046110a3565b610571565b6102b26102ad366004611212565b61060c565b6040517fffffffff00000000000000000000000000000000000000000000000000000000909116815260200161012b565b6102ef60013383610638565b5050565b5f81900361032d576040517f1f2a381c00000000000000000000000000000000000000000000000000000000815260040160405180910390fd5b335f908152602081905260409020546001600160a01b03161561037c576040517fe72ce85e00000000000000000000000000000000000000000000000000000000815260040160405180910390fd5b5f61038a601482848661126a565b61039391611291565b60601c9050806103cf576040517fc81abf6000000000000000000000000000000000000000000000000000000000815260040160405180910390fd5b803b156103ef576040516383e6a1cb60e01b815260040160405180910390fd5b335f908152602081905260409020805473ffffffffffffffffffffffffffffffffffffffff19166001600160a01b03831617905560148211156104415761044161043c836014818761126a565b610657565b505050565b335f818152602081905260409020805473ffffffffffffffffffffffffffffffffffffffff191690556102ef906001906106be565b5f601482146104b6576040517fdfe9309000000000000000000000000000000000000000000000000000000000815260040160405180910390fd5b5f6104c4601482858761126a565b6104cd91611291565b60601c90506104de818888886106c8565b979650505050505050565b5f61052c81806104fc60208701876110a3565b6001600160a01b03908116825260208201929092526040015f205416836105276101008701876112de565b6106c8565b610537576001610539565b5f5b90505b92915050565b6001600160a01b038082165f90815260208190526040812054909116151561053c565b6102ef60013383610793565b6001600160a01b0381166105b1576040517f8579befe00000000000000000000000000000000000000000000000000000000815260040160405180910390fd5b803b156105d1576040516383e6a1cb60e01b815260040160405180910390fd5b335f908152602081905260409020805473ffffffffffffffffffffffffffffffffffffffff19166001600160a01b0392909216919091179055565b5f5f610622868661061d87876107a8565b6107dd565b155f03631626ba7e1760e01b9695505050505050565b5f61064d84846001600160a01b038516610815565b90505b9392505050565b5f5b610664601483611335565b811015610441576106b533848461067c856014611354565b9061068886600161136b565b610693906014611354565b926106a09392919061126a565b6106a991611291565b6001919060601c610638565b50600101610659565b6102ef828261089a565b5f60208301357f7fffffffffffffffffffffffffffffff5d576e7357a4501ddfe92f46681b20a08111156106ff575f91505061078b565b856001600160a01b03166107148686866108ee565b6001600160a01b03160361072c57600191505061078b565b856001600160a01b031661076e610767876020527b19457468657265756d205369676e6564204d6573736167653a0a33325f52603c60042090565b86866108ee565b6001600160a01b03160361078657600191505061078b565b5f9150505b949350505050565b5f61064d84846001600160a01b038516610930565b365f83839150915061ffff60605119046164920260208203830135036107d657506040810135016020810190355b9250929050565b5f6107ea85858585610a0e565b806107fb57506107fb848484610a28565b8061080c575061080c848484610bfc565b95945050505050565b5f81815260018401602090815260408083206001600160a01b0386168452909152812054610893575f8381526020858152604090912080546001019182028101849055556108638484610c67565b5f8381526001808701602090815260408084206001600160a01b0389168552909152909120919091559050610650565b505f610650565b5f6108a58383610c7a565b905060015b8181116108e8575f6108c685856108c1858761137e565b610c85565b90506108d3858583610930565b505080806108e090611391565b9150506108aa565b50505050565b5f61064d83838080601f0160208091040260200160405190810160405280939291908181526020018383808284375f920191909152508893925050610c919050565b5f81815260018401602090815260408083206001600160a01b03861684529091528120548015610a05575f61096660018361137e565b90505f60016109758888610c67565b61097f919061137e565b90508082146109c9575f610994888884610d2a565b90506109a288888584610d36565b5f90815260018801602090815260408083206001600160a01b038a16845290915290208390555b6109d38787610d42565b5050505f8281526001808601602090815260408084206001600160a01b03881685529091528220919091559050610650565b5f915050610650565b5f610a1885610d4c565b1561078b5761080c848484610d8c565b5f5f610a3333610db0565b90506040516002840385013560f01c8060420180860387016119015f52604081602037821582881017896042601e20181715610aa0575f94507f983e65e5148e570cd828ead231ee759a8d7958721a768f93bc4483ba005c32de8552886020526040852098505050610bdb565b7f5479706564446174615369676e280000000000000000000000000000000000008452600e8401836040830182376f07fffffe00000000000001000000000081515f1a1c6028858301525b602882515f1a14610b1157806512010000000183515f1a1c179050600182019150610aeb565b7f20636f6e74656e74732c627974657331206669656c64732c737472696e67206e82527f616d652c737472696e672076657273696f6e2c75696e7432353620636861696e60208301527f49642c6164647265737320766572696679696e67436f6e74726163742c62797460408301527f657333322073616c742c75696e743235365b5d20657874656e73696f6e7329006060830152607f82019150846040840183376040838837908401859003852086526101208620604052600116604201601e20985050909403935b5060405280610bf157610bee3386610e82565b94505b61080c858585610d8c565b5f3a610650573a3a526d378edcd5b5b0a24f5342d8c1048560203a3a388461fffffa503a51610c5b57604051631626ba7e3a528160205260408052454561ffff0117805a108388141715610c4c57fe5b3a3a6064601c3085fa50506040525b5061064d848484610d8c565b5f81815260208390526040812054610539565b5f6105398383610c67565b5f61064d848484610d2a565b604051600190835f5260208301516040526040835103610ce557604083015160ff81901c601b016020527f7fffffffffffffffffffffffffffffffffffffffffffffffffffffffffffffff16606052610d09565b6041835103610d055760608301515f1a6020526040830151606052610d09565b5f91505b6020604060805f855afa505f6060523d606018519150806040525092915050565b5f61064d848484610f6d565b6108e884848484610f84565b6102ef8282610f9c565b5f6dd9ecebf3c23529de49815dac1c4c6001600160a01b0383161480610d7a57506001600160a01b03821633145b8061053c575061053c60013384610fd8565b335f9081526020819052604081205461064d906001600160a01b03168585856106c8565b5f5f5f5f5f5f5f5f886001600160a01b03166384b0196e6040518163ffffffff1660e01b81526004015f60405180830381865afa158015610df3573d5f5f3e3d5ffd5b505050506040513d5f823e601f3d908101601f19168201604052610e1a91908101906114ea565b60408051610120810182525f9890981a60f81b9088015285516020968701206060880152845194860194909420608087015260a08601929092526001600160a01b031660c085015260e0840152805160051b9101206101008201529998505050505050505050565b5f5f5f5f5f866001600160a01b03166384b0196e6040518163ffffffff1660e01b81526004015f60405180830381865afa158015610ec2573d5f5f3e3d5ffd5b505050506040513d5f823e601f3d908101601f19168201604052610ee991908101906114ea565b50509450945094509450506040517f8b73c3c69bb8fe3d512ecc4cf759cc79239f7b179b0ffacaa9a75d522b39400f815284516020860120602082015283516020850120604082015282606082015281608082015260a081209550506719010000000000005f5284601a5285603a52604260182094505f603a525050505092915050565b5f82815260208490526040812061064d9083611008565b5f8381526020859052604090206108e890838361102e565b5f81815260208390526040812080549091819003610fba5750505050565b610fcf82610fc960018461137e565b5f61102e565b5f190190555050565b6001600160a01b038181165f9081526001850160209081526040808320938616835292905290812054151561064d565b5f8254821061102257638277484f5f52816020526024601cfd5b50600101602002015490565b8254821061104757638277484f5f52816020526024601cfd5b8060018301602002840155505050565b602081525f82518060208401528060208501604085015e5f604082850101526040601f19601f83011684010191505092915050565b6001600160a01b03811681146110a0575f5ffd5b50565b5f602082840312156110b3575f5ffd5b81356106508161108c565b5f5f83601f8401126110ce575f5ffd5b50813567ffffffffffffffff8111156110e5575f5ffd5b6020830191508360208285010111156107d6575f5ffd5b5f5f6020838503121561110d575f5ffd5b823567ffffffffffffffff811115611123575f5ffd5b61112f858286016110be565b90969095509350505050565b5f5f5f5f5f6060868803121561114f575f5ffd5b85359450602086013567ffffffffffffffff81111561116c575f5ffd5b611178888289016110be565b909550935050604086013567ffffffffffffffff811115611197575f5ffd5b6111a3888289016110be565b969995985093965092949392505050565b5f5f604083850312156111c5575f5ffd5b823567ffffffffffffffff8111156111db575f5ffd5b830161012081860312156111ed575f5ffd5b946020939093013593505050565b5f6020828403121561120b575f5ffd5b5035919050565b5f5f5f5f60608587031215611225575f5ffd5b84356112308161108c565b935060208501359250604085013567ffffffffffffffff811115611252575f5ffd5b61125e878288016110be565b95989497509550505050565b5f5f85851115611278575f5ffd5b83861115611284575f5ffd5b5050820193919092039150565b80356bffffffffffffffffffffffff1981169060148410156112d7576bffffffffffffffffffffffff196bffffffffffffffffffffffff198560140360031b1b82161691505b5092915050565b5f5f8335601e198436030181126112f3575f5ffd5b83018035915067ffffffffffffffff82111561130d575f5ffd5b6020019150368190038213156107d6575f5ffd5b634e487b7160e01b5f52601160045260245ffd5b5f8261134f57634e487b7160e01b5f52601260045260245ffd5b500490565b808202811582820484141761053c5761053c611321565b8082018082111561053c5761053c611321565b8181038181111561053c5761053c611321565b5f600182016113a2576113a2611321565b5060010190565b634e487b7160e01b5f52604160045260245ffd5b604051601f8201601f1916810167ffffffffffffffff811182821017156113e6576113e66113a9565b604052919050565b5f82601f8301126113fd575f5ffd5b815167ffffffffffffffff811115611417576114176113a9565b61142a601f8201601f19166020016113bd565b81815284602083860101111561143e575f5ffd5b8160208501602083015e5f918101602001919091529392505050565b80516114658161108c565b919050565b5f82601f830112611479575f5ffd5b815167ffffffffffffffff811115611493576114936113a9565b8060051b6114a3602082016113bd565b918252602081850181019290810190868411156114be575f5ffd5b6020860192505b838310156114e05782518252602092830192909101906114c5565b9695505050505050565b5f5f5f5f5f5f5f60e0888a031215611500575f5ffd5b87517fff000000000000000000000000000000000000000000000000000000000000008116811461152f575f5ffd5b602089015190975067ffffffffffffffff81111561154b575f5ffd5b6115578a828b016113ee565b965050604088015167ffffffffffffffff811115611573575f5ffd5b61157f8a828b016113ee565b60608a0151909650945061159790506080890161145a565b60a089015160c08a0151919450925067ffffffffffffffff8111156115ba575f5ffd5b6115c68a828b0161146a565b9150509295989194975092955056fea164736f6c634300081b000a","linkReferences":{}},"methodIdentifiers":{"addSafeSender(address)":"5c81ca68","isInitialized(address)":"d60b347f","isModuleType(uint256)":"ecd05961","isValidSignatureWithSender(address,bytes32,bytes)":"f551e2ee","name()":"06fdde03","onInstall(bytes)":"6d61fe70","onUninstall(bytes)":"8a91b0e3","removeSafeSender(address)":"e824b568","smartAccountOwners(address)":"2e5b63a6","supportsNestedTypedDataSign()":"d620c85a","transferOwnership(address)":"f2fde38b","validateSignatureWithData(bytes32,bytes,bytes)":"940d3840","validateUserOp((address,uint256,bytes,bytes,bytes32,uint256,bytes32,bytes,bytes),bytes32)":"97003203","version()":"54fd4d50"},"id":59}