{"abi":[{"type":"constructor","inputs":[{"name":"anEntryPoint","type":"address","internalType":"address"}],"stateMutability":"nonpayable"},{"type":"fallback","stateMutability":"payable"},{"type":"receive","stateMutability":"payable"},{"type":"function","name":"DOMAIN_SEPARATOR","inputs":[],"outputs":[{"name":"","type":"bytes32","internalType":"bytes32"}],"stateMutability":"view"},{"type":"function","name":"accountId","inputs":[],"outputs":[{"name":"","type":"string","internalType":"string"}],"stateMutability":"pure"},{"type":"function","name":"addDeposit","inputs":[],"outputs":[],"stateMutability":"payable"},{"type":"function","name":"eip712Domain","inputs":[],"outputs":[{"name":"fields","type":"bytes1","internalType":"bytes1"},{"name":"name","type":"string","internalType":"string"},{"name":"version","type":"string","internalType":"string"},{"name":"chainId","type":"uint256","internalType":"uint256"},{"name":"verifyingContract","type":"address","internalType":"address"},{"name":"salt","type":"bytes32","internalType":"bytes32"},{"name":"extensions","type":"uint256[]","internalType":"uint256[]"}],"stateMutability":"view"},{"type":"function","name":"emergencyUninstallHook","inputs":[{"name":"hook","type":"address","internalType":"address"},{"name":"deInitData","type":"bytes","internalType":"bytes"}],"outputs":[],"stateMutability":"payable"},{"type":"function","name":"entryPoint","inputs":[],"outputs":[{"name":"","type":"address","internalType":"address"}],"stateMutability":"view"},{"type":"function","name":"execute","inputs":[{"name":"mode","type":"bytes32","internalType":"ExecutionMode"},{"name":"executionCalldata","type":"bytes","internalType":"bytes"}],"outputs":[],"stateMutability":"payable"},{"type":"function","name":"executeFromExecutor","inputs":[{"name":"mode","type":"bytes32","internalType":"ExecutionMode"},{"name":"executionCalldata","type":"bytes","internalType":"bytes"}],"outputs":[{"name":"returnData","type":"bytes[]","internalType":"bytes[]"}],"stateMutability":"payable"},{"type":"function","name":"executeUserOp","inputs":[{"name":"userOp","type":"tuple","internalType":"struct PackedUserOperation","components":[{"name":"sender","type":"address","internalType":"address"},{"name":"nonce","type":"uint256","internalType":"uint256"},{"name":"initCode","type":"bytes","internalType":"bytes"},{"name":"callData","type":"bytes","internalType":"bytes"},{"name":"accountGasLimits","type":"bytes32","internalType":"bytes32"},{"name":"preVerificationGas","type":"uint256","internalType":"uint256"},{"name":"gasFees","type":"bytes32","internalType":"bytes32"},{"name":"paymasterAndData","type":"bytes","internalType":"bytes"},{"name":"signature","type":"bytes","internalType":"bytes"}]},{"name":"","type":"bytes32","internalType":"bytes32"}],"outputs":[],"stateMutability":"payable"},{"type":"function","name":"getActiveHook","inputs":[],"outputs":[{"name":"hook","type":"address","internalType":"address"}],"stateMutability":"view"},{"type":"function","name":"getDeposit","inputs":[],"outputs":[{"name":"result","type":"uint256","internalType":"uint256"}],"stateMutability":"view"},{"type":"function","name":"getExecutorsPaginated","inputs":[{"name":"cursor","type":"address","internalType":"address"},{"name":"size","type":"uint256","internalType":"uint256"}],"outputs":[{"name":"array","type":"address[]","internalType":"address[]"},{"name":"next","type":"address","internalType":"address"}],"stateMutability":"view"},{"type":"function","name":"getFallbackHandlerBySelector","inputs":[{"name":"selector","type":"bytes4","internalType":"bytes4"}],"outputs":[{"name":"","type":"bytes1","internalType":"CallType"},{"name":"","type":"address","internalType":"address"}],"stateMutability":"view"},{"type":"function","name":"getImplementation","inputs":[],"outputs":[{"name":"implementation","type":"address","internalType":"address"}],"stateMutability":"view"},{"type":"function","name":"getValidatorsPaginated","inputs":[{"name":"cursor","type":"address","internalType":"address"},{"name":"size","type":"uint256","internalType":"uint256"}],"outputs":[{"name":"array","type":"address[]","internalType":"address[]"},{"name":"next","type":"address","internalType":"address"}],"stateMutability":"view"},{"type":"function","name":"hashTypedData","inputs":[{"name":"structHash","type":"bytes32","internalType":"bytes32"}],"outputs":[{"name":"","type":"bytes32","internalType":"bytes32"}],"stateMutability":"view"},{"type":"function","name":"initializeAccount","inputs":[{"name":"initData","type":"bytes","internalType":"bytes"}],"outputs":[],"stateMutability":"payable"},{"type":"function","name":"installModule","inputs":[{"name":"moduleTypeId","type":"uint256","internalType":"uint256"},{"name":"module","type":"address","internalType":"address"},{"name":"initData","type":"bytes","internalType":"bytes"}],"outputs":[],"stateMutability":"payable"},{"type":"function","name":"isModuleInstalled","inputs":[{"name":"moduleTypeId","type":"uint256","internalType":"uint256"},{"name":"module","type":"address","internalType":"address"},{"name":"additionalContext","type":"bytes","internalType":"bytes"}],"outputs":[{"name":"","type":"bool","internalType":"bool"}],"stateMutability":"view"},{"type":"function","name":"isValidSignature","inputs":[{"name":"hash","type":"bytes32","internalType":"bytes32"},{"name":"signature","type":"bytes","internalType":"bytes"}],"outputs":[{"name":"","type":"bytes4","internalType":"bytes4"}],"stateMutability":"view"},{"type":"function","name":"nonce","inputs":[{"name":"key","type":"uint192","internalType":"uint192"}],"outputs":[{"name":"","type":"uint256","internalType":"uint256"}],"stateMutability":"view"},{"type":"function","name":"proxiableUUID","inputs":[],"outputs":[{"name":"","type":"bytes32","internalType":"bytes32"}],"stateMutability":"view"},{"type":"function","name":"registry","inputs":[],"outputs":[{"name":"","type":"address","internalType":"contract IERC7484"}],"stateMutability":"view"},{"type":"function","name":"setRegistry","inputs":[{"name":"newRegistry","type":"address","internalType":"contract IERC7484"},{"name":"attesters","type":"address[]","internalType":"address[]"},{"name":"threshold","type":"uint8","internalType":"uint8"}],"outputs":[],"stateMutability":"payable"},{"type":"function","name":"supportsExecutionMode","inputs":[{"name":"mode","type":"bytes32","internalType":"ExecutionMode"}],"outputs":[{"name":"isSupported","type":"bool","internalType":"bool"}],"stateMutability":"view"},{"type":"function","name":"supportsModule","inputs":[{"name":"moduleTypeId","type":"uint256","internalType":"uint256"}],"outputs":[{"name":"","type":"bool","internalType":"bool"}],"stateMutability":"view"},{"type":"function","name":"supportsNestedTypedDataSign","inputs":[],"outputs":[{"name":"","type":"bytes32","internalType":"bytes32"}],"stateMutability":"view"},{"type":"function","name":"uninstallModule","inputs":[{"name":"moduleTypeId","type":"uint256","internalType":"uint256"},{"name":"module","type":"address","internalType":"address"},{"name":"deInitData","type":"bytes","internalType":"bytes"}],"outputs":[],"stateMutability":"payable"},{"type":"function","name":"upgradeToAndCall","inputs":[{"name":"newImplementation","type":"address","internalType":"address"},{"name":"data","type":"bytes","internalType":"bytes"}],"outputs":[],"stateMutability":"payable"},{"type":"function","name":"validateUserOp","inputs":[{"name":"op","type":"tuple","internalType":"struct PackedUserOperation","components":[{"name":"sender","type":"address","internalType":"address"},{"name":"nonce","type":"uint256","internalType":"uint256"},{"name":"initCode","type":"bytes","internalType":"bytes"},{"name":"callData","type":"bytes","internalType":"bytes"},{"name":"accountGasLimits","type":"bytes32","internalType":"bytes32"},{"name":"preVerificationGas","type":"uint256","internalType":"uint256"},{"name":"gasFees","type":"bytes32","internalType":"bytes32"},{"name":"paymasterAndData","type":"bytes","internalType":"bytes"},{"name":"signature","type":"bytes","internalType":"bytes"}]},{"name":"userOpHash","type":"bytes32","internalType":"bytes32"},{"name":"missingAccountFunds","type":"uint256","internalType":"uint256"}],"outputs":[{"name":"validationData","type":"uint256","internalType":"uint256"}],"stateMutability":"nonpayable"},{"type":"function","name":"withdrawDepositTo","inputs":[{"name":"to","type":"address","internalType":"address"},{"name":"amount","type":"uint256","internalType":"uint256"}],"outputs":[],"stateMutability":"payable"},{"type":"event","name":"ERC7484RegistryConfigured","inputs":[{"name":"registry","type":"address","indexed":true,"internalType":"contract IERC7484"}],"anonymous":false},{"type":"event","name":"EmergencyHookUninstallRequest","inputs":[{"name":"hook","type":"address","indexed":false,"internalType":"address"},{"name":"timestamp","type":"uint256","indexed":false,"internalType":"uint256"}],"anonymous":false},{"type":"event","name":"EmergencyHookUninstallRequestReset","inputs":[{"name":"hook","type":"address","indexed":false,"internalType":"address"},{"name":"timestamp","type":"uint256","indexed":false,"internalType":"uint256"}],"anonymous":false},{"type":"event","name":"Executed","inputs":[{"name":"userOp","type":"tuple","indexed":false,"internalType":"struct PackedUserOperation","components":[{"name":"sender","type":"address","internalType":"address"},{"name":"nonce","type":"uint256","internalType":"uint256"},{"name":"initCode","type":"bytes","internalType":"bytes"},{"name":"callData","type":"bytes","internalType":"bytes"},{"name":"accountGasLimits","type":"bytes32","internalType":"bytes32"},{"name":"preVerificationGas","type":"uint256","internalType":"uint256"},{"name":"gasFees","type":"bytes32","internalType":"bytes32"},{"name":"paymasterAndData","type":"bytes","internalType":"bytes"},{"name":"signature","type":"bytes","internalType":"bytes"}]},{"name":"innerCallRet","type":"bytes","indexed":false,"internalType":"bytes"}],"anonymous":false},{"type":"event","name":"ModuleInstalled","inputs":[{"name":"moduleTypeId","type":"uint256","indexed":false,"internalType":"uint256"},{"name":"module","type":"address","indexed":false,"internalType":"address"}],"anonymous":false},{"type":"event","name":"ModuleUninstalled","inputs":[{"name":"moduleTypeId","type":"uint256","indexed":false,"internalType":"uint256"},{"name":"module","type":"address","indexed":false,"internalType":"address"}],"anonymous":false},{"type":"event","name":"TryDelegateCallUnsuccessful","inputs":[{"name":"callData","type":"bytes","indexed":false,"internalType":"bytes"},{"name":"result","type":"bytes","indexed":false,"internalType":"bytes"}],"anonymous":false},{"type":"event","name":"TryExecuteUnsuccessful","inputs":[{"name":"callData","type":"bytes","indexed":false,"internalType":"bytes"},{"name":"result","type":"bytes","indexed":false,"internalType":"bytes"}],"anonymous":false},{"type":"event","name":"Upgraded","inputs":[{"name":"implementation","type":"address","indexed":true,"internalType":"address"}],"anonymous":false},{"type":"error","name":"AccountAccessUnauthorized","inputs":[]},{"type":"error","name":"CanNotRemoveLastValidator","inputs":[]},{"type":"error","name":"EmergencyTimeLockNotExpired","inputs":[]},{"type":"error","name":"EnableModeSigError","inputs":[]},{"type":"error","name":"EntryPointCanNotBeZero","inputs":[]},{"type":"error","name":"ExecutionFailed","inputs":[]},{"type":"error","name":"FallbackAlreadyInstalledForSelector","inputs":[{"name":"selector","type":"bytes4","internalType":"bytes4"}]},{"type":"error","name":"FallbackCallTypeInvalid","inputs":[]},{"type":"error","name":"FallbackHandlerUninstallFailed","inputs":[]},{"type":"error","name":"FallbackNotInstalledForSelector","inputs":[{"name":"selector","type":"bytes4","internalType":"bytes4"}]},{"type":"error","name":"FallbackSelectorForbidden","inputs":[]},{"type":"error","name":"HookAlreadyInstalled","inputs":[{"name":"currentHook","type":"address","internalType":"address"}]},{"type":"error","name":"HookPostCheckFailed","inputs":[]},{"type":"error","name":"ImplementationIsNotAContract","inputs":[]},{"type":"error","name":"InnerCallFailed","inputs":[]},{"type":"error","name":"InvalidImplementationAddress","inputs":[]},{"type":"error","name":"InvalidInput","inputs":[]},{"type":"error","name":"InvalidModule","inputs":[{"name":"module","type":"address","internalType":"address"}]},{"type":"error","name":"InvalidModuleTypeId","inputs":[{"name":"moduleTypeId","type":"uint256","internalType":"uint256"}]},{"type":"error","name":"LinkedList_AlreadyInitialized","inputs":[]},{"type":"error","name":"LinkedList_EntryAlreadyInList","inputs":[{"name":"entry","type":"address","internalType":"address"}]},{"type":"error","name":"LinkedList_InvalidEntry","inputs":[{"name":"entry","type":"address","internalType":"address"}]},{"type":"error","name":"LinkedList_InvalidPage","inputs":[]},{"type":"error","name":"MismatchModuleTypeId","inputs":[{"name":"moduleTypeId","type":"uint256","internalType":"uint256"}]},{"type":"error","name":"MissingFallbackHandler","inputs":[{"name":"selector","type":"bytes4","internalType":"bytes4"}]},{"type":"error","name":"ModuleAddressCanNotBeZero","inputs":[]},{"type":"error","name":"ModuleAlreadyInstalled","inputs":[{"name":"moduleTypeId","type":"uint256","internalType":"uint256"},{"name":"module","type":"address","internalType":"address"}]},{"type":"error","name":"ModuleNotInstalled","inputs":[{"name":"moduleTypeId","type":"uint256","internalType":"uint256"},{"name":"module","type":"address","internalType":"address"}]},{"type":"error","name":"NexusInitializationFailed","inputs":[]},{"type":"error","name":"NoValidatorInstalled","inputs":[]},{"type":"error","name":"UnauthorizedCallContext","inputs":[]},{"type":"error","name":"UnauthorizedOperation","inputs":[{"name":"operator","type":"address","internalType":"address"}]},{"type":"error","name":"UnsupportedCallType","inputs":[{"name":"callType","type":"bytes1","internalType":"CallType"}]},{"type":"error","name":"UnsupportedExecType","inputs":[{"name":"execType","type":"bytes1","internalType":"ExecType"}]},{"type":"error","name":"UnsupportedModuleType","inputs":[{"name":"moduleTypeId","type":"uint256","internalType":"uint256"}]},{"type":"error","name":"UpgradeFailed","inputs":[]},{"type":"error","name":"ValidatorNotInstalled","inputs":[{"name":"module","type":"address","internalType":"address"}]}],"bytecode":{"object":"0x6101606040523061014052348015610015575f5ffd5b50604051615687380380615687833981016040819052610034916101d4565b306080524660a05260608061007d6040805180820182526005808252644e6578757360d81b6020808401919091528351808501909452908352640312e302e360dc1b9083015291565b815160209283012081519183019190912060c082905260e0819052604080517f8b73c3c69bb8fe3d512ecc4cf759cc79239f7b179b0ffacaa9a75d522b39400f8152938401929092529082015246606082015230608082015260a090206101005250506001600160a01b038116610107576040516307e355bf60e31b815260040160405180910390fd5b6001600160a01b0381166101205261011d610123565b50610201565b7f0bb70095b32b9671358306b0339b4c06e7cbd8cb82505941fba30d1eb5b82f0061016d7f0bb70095b32b9671358306b0339b4c06e7cbd8cb82505941fba30d1eb5b82f01610179565b61017681610179565b50565b60015f908152602082905260409020546001600160a01b0316156101b0576040516329e42f3360e11b815260040160405180910390fd5b60015f818152602092909252604090912080546001600160a01b0319169091179055565b5f602082840312156101e4575f5ffd5b81516001600160a01b03811681146101fa575f5ffd5b9392505050565b60805160a05160c05160e0516101005161012051610140516153b06102d75f395f818161106a015261260201525f818161062a01528181610a9c01528181610cd301528181610e0001528181610e4b015281816111ad015281816114bd0152818161156301528181611894015281816118e401528181611f9c015281816120180152818161222d015261363d01525f818161247601526126f401525f818161253001526127ae01525f818161250a015261278801525f81816124ba015261273801525f8181612497015261271501526153b05ff3fe6080604052600436106101db575f3560e01c80638dd7712f11610101578063d03c791411610094578063e9ae5c5311610063578063e9ae5c53146106e7578063ea5f61d0146106fa578063eab77e1714610719578063f2dc691d1461072c576101e2565b8063d03c791414610675578063d620c85a14610694578063d691c964146106a8578063d86f2b3c146106c8576101e2565b8063aaf10f42116100d0578063aaf10f4214610608578063b0d691fe1461061c578063c399ec881461064e578063cd64f80a14610662576101e2565b80638dd7712f146105845780639517e29f146105975780639cfd7cff146105aa578063a71763a8146105f5576101e2565b80634b6a1419116101795780635faac46b116101485780635faac46b146104f35780636575f6aa146105205780637b1039991461053f57806384b0196e1461055d576101e2565b80634b6a1419146104a65780634d44560d146104b95780634f1ef286146104cc57806352d1902d146104df576101e2565b806319822f7c116101b557806319822f7c146103a95780633644e515146103d6578063481ddd23146103ea5780634a58db191461049c576101e2565b80630a664dba14610311578063112d3a7d146103425780631626ba7e14610371576101e2565b366101e257005b5f3660605f6102055f5160206153295f395f51905f52546001600160a01b031690565b90506001600160a01b0381166102265761021f848461074b565b9150610305565b60405163d68f602560e01b81525f906001600160a01b0383169063d68f60259061025a903390349086903690600401614646565b5f604051808303815f875af1158015610275573d5f5f3e3d5ffd5b505050506040513d5f823e601f3d908101601f1916820160405261029c919081019061470e565b90506102a8858561074b565b9250604051630b9dfbed60e11b81526001600160a01b0383169063173bf7da906102d69084906004016147b6565b5f604051808303815f87803b1580156102ed575f5ffd5b505af11580156102ff573d5f5f3e3d5ffd5b50505050505b50915050805190602001f35b34801561031c575f5ffd5b50610325610964565b6040516001600160a01b0390911681526020015b60405180910390f35b34801561034d575f5ffd5b5061036161035c36600461482c565b610988565b6040519015158152602001610339565b34801561037c575f5ffd5b5061039061038b366004614884565b6109a0565b6040516001600160e01b03199091168152602001610339565b3480156103b4575f5ffd5b506103c86103c33660046148e3565b610a8f565b604051908152602001610339565b3480156103e1575f5ffd5b506103c8610cc8565b3480156103f5575f5ffd5b50610474610404366004614942565b6001600160e01b0319165f9081527f0bb70095b32b9671358306b0339b4c06e7cbd8cb82505941fba30d1eb5b82f0260209081526040918290208251808401909352546001600160a01b038116808452600160a01b90910460f81b6001600160f81b031916929091018290529091565b604080516001600160f81b031990931683526001600160a01b03909116602083015201610339565b6104a4610cd1565b005b6104a46104b436600461495d565b610d05565b6104a46104c7366004614990565b610df5565b6104a46104da3660046149ba565b610eaa565b3480156104ea575f5ffd5b506103c8611067565b3480156104fe575f5ffd5b5061051261050d366004614990565b6110c4565b6040516103399291906149f2565b34801561052b575f5ffd5b506103c861053a366004614a51565b6110ea565b34801561054a575f5ffd5b505f54610325906001600160a01b031681565b348015610568575f5ffd5b506105716110fa565b6040516103399796959493929190614a68565b6104a4610592366004614b02565b6111a2565b6104a46105a536600461482c565b6114b2565b3480156105b5575f5ffd5b50604080518082018252601481527f6269636f6e6f6d792e6e657875732e312e302e300000000000000000000000006020820152905161033991906147b6565b6104a461060336600461482c565b611558565b348015610613575f5ffd5b50610325611859565b348015610627575f5ffd5b507f0000000000000000000000000000000000000000000000000000000000000000610325565b348015610659575f5ffd5b506103c8611890565b6104a46106703660046149ba565b6118d9565b348015610680575f5ffd5b5061036161068f366004614a51565b611b14565b34801561069f575f5ffd5b506103c8611b82565b6106bb6106b6366004614884565b611cce565b6040516103399190614b44565b3480156106d3575f5ffd5b506103c86106e2366004614ba7565b611f4c565b6104a46106f5366004614884565b61200d565b348015610705575f5ffd5b50610512610714366004614990565b6121f4565b6104a4610727366004614bde565b612222565b348015610737575f5ffd5b50610361610746366004614a51565b612281565b5f80356001600160e01b03191681527f0bb70095b32b9671358306b0339b4c06e7cbd8cb82505941fba30d1eb5b82f0260205260408120805460609291906001600160a01b03811690600160a01b900460f81b81156108c8576001600160f81b03198116607f60f91b0361082157816001600160a01b03166107cd88886122db565b6040516107da9190614c79565b5f60405180830381855afa9150503d805f8114610812576040519150601f19603f3d011682016040523d82523d5f602084013e610817565b606091505b50955093506108b6565b6001600160f81b0319811661088c57816001600160a01b03163461084589896122db565b6040516108529190614c79565b5f6040518083038185875af1925050503d805f8114610812576040519150601f19603f3d011682016040523d82523d5f602084013e610817565b604051632e5bf3f960e21b81526001600160f81b0319821660048201526024015b60405180910390fd5b836108c357845160208601fd5b61095a565b5f3560e01c63150b7a02811463f23a6e61821463bc197c81831417171561090757600194506040519550600486528060e01b6020870152602486016040525b6001600160e01b03195f351685610957576040517f08c63e270000000000000000000000000000000000000000000000000000000081526001600160e01b031990911660048201526024016108ad565b50505b5050505092915050565b5f6109835f5160206153295f395f51905f52546001600160a01b031690565b905090565b5f61099585858585612310565b90505b949350505050565b5f806109af6014828587614c8f565b6109b891614cb6565b60601c90506109c6816123cf565b81906109f15760405163342cf00f60e11b81526001600160a01b0390911660048201526024016108ad565b506001600160a01b03811663f551e2ee3387610a10876014818b614c8f565b6040518563ffffffff1660e01b8152600401610a2f9493929190614646565b602060405180830381865afa925050508015610a68575060408051601f3d908101601f19168201909252610a6591810190614d03565b60015b610a7d57506001600160e01b03199050610a88565b9150610a889050565b505b9392505050565b5f81336001600160a01b037f00000000000000000000000000000000000000000000000000000000000000001614610ada57604051635629665f60e11b815260040160405180910390fd5b5f602086013560401c6001600160a01b03169050600160f81b602087013560031a60f81b03610c0a575f610b0d87614d6b565b9050610b2686610b216101008a018a614e6b565b6123e7565b8080601f0160208091040260200160405190810160405280939291908181526020018383808284375f92019190915250505050610100820152610b68826123cf565b8290610b935760405163342cf00f60e11b81526001600160a01b0390911660048201526024016108ad565b50604051639700320360e01b81526001600160a01b03831690639700320390610bc29084908a90600401614eae565b6020604051808303815f875af1158015610bde573d5f5f3e3d5ffd5b505050506040513d601f19601f82011682018060405250810190610c029190614f7a565b935050610cb0565b610c13816123cf565b8190610c3e5760405163342cf00f60e11b81526001600160a01b0390911660048201526024016108ad565b50604051639700320360e01b81526001600160a01b03821690639700320390610c6d90899089906004016150a8565b6020604051808303815f875af1158015610c89573d5f5f3e3d5ffd5b505050506040513d601f19601f82011682018060405250810190610cad9190614f7a565b92505b508015610a86575f385f3884335af150509392505050565b5f610983612474565b7f00000000000000000000000000000000000000000000000000000000000000005f38818134855af1610d02575f38fd5b50565b610d0d612569565b5f80610d1b838501856150c9565b915091505f826001600160a01b031682604051610d389190614c79565b5f60405180830381855af49150503d805f8114610d70576040519150601f19603f3d011682016040523d82523d5f602084013e610d75565b606091505b5050905080610db0576040517f315927c500000000000000000000000000000000000000000000000000000000815260040160405180910390fd5b610db86125a9565b610dee576040517fc4d0a0b100000000000000000000000000000000000000000000000000000000815260040160405180910390fd5b5050505050565b336001600160a01b037f0000000000000000000000000000000000000000000000000000000000000000161480610e2b57503330145b610e4857604051635629665f60e11b815260040160405180910390fd5b5f7f0000000000000000000000000000000000000000000000000000000000000000905060405183601452826034526f205c28780000000000000000000000005f525f38604460105f865af1610ea0573d5f823e3d81fd5b505f603452505050565b5f610ec95f5160206153295f395f51905f52546001600160a01b031690565b90506001600160a01b038116610f36576001600160a01b038416610f005760405163325c055b60e21b815260040160405180910390fd5b833b151580610f225760405163325c055b60e21b815260040160405180910390fd5b843055610f30858585612600565b50611061565b60405163d68f602560e01b81525f906001600160a01b0383169063d68f602590610f6a903390349086903690600401614646565b5f604051808303815f875af1158015610f85573d5f5f3e3d5ffd5b505050506040513d5f823e601f3d908101601f19168201604052610fac919081019061470e565b90506001600160a01b038516610fd55760405163325c055b60e21b815260040160405180910390fd5b843b151580610ff75760405163325c055b60e21b815260040160405180910390fd5b853055611005868686612600565b50604051630b9dfbed60e11b81526001600160a01b0383169063173bf7da906110329084906004016147b6565b5f604051808303815f87803b158015611049575f5ffd5b505af115801561105b573d5f5f3e3d5ffd5b50505050505b50505050565b5f7f000000000000000000000000000000000000000000000000000000000000000030811461109d57639f03a0265f526004601cfd5b7f360894a13ba1a3210667c828492db98dca3e2076cc3735a920a3ca505d382bbc91505090565b60605f6110df5f5160206153095f395f51905f5285856126d8565b909590945092505050565b5f6110f4826126f2565b92915050565b7f0f000000000000000000000000000000000000000000000000000000000000006060805f80808361119060408051808201825260058082527f4e6578757300000000000000000000000000000000000000000000000000000060208084019190915283518085019094529083527f312e302e300000000000000000000000000000000000000000000000000000009083015291565b97989097965046955030945091925090565b336001600160a01b037f000000000000000000000000000000000000000000000000000000000000000016146111eb57604051635629665f60e11b815260040160405180910390fd5b5f61120a5f5160206153295f395f51905f52546001600160a01b031690565b90506001600160a01b03811661131857365f6112296060860186614e6b565b611237916004908290614c8f565b915091505f5f306001600160a01b03168484604051611257929190615116565b5f60405180830381855af49150503d805f811461128f576040519150601f19603f3d011682016040523d82523d5f602084013e611294565b606091505b509150915081156112dd577fd3fddfd1276d1cc278f10907710a44474a32f917b2fcfa198f46ca7689215e2f87826040516112d0929190615125565b60405180910390a161130f565b6040517facfdb44400000000000000000000000000000000000000000000000000000000815260040160405180910390fd5b50505050505050565b60405163d68f602560e01b81525f906001600160a01b0383169063d68f60259061134c903390349086903690600401614646565b5f604051808303815f875af1158015611367573d5f5f3e3d5ffd5b505050506040513d5f823e601f3d908101601f1916820160405261138e919081019061470e565b9050365f61139f6060870187614e6b565b6113ad916004908290614c8f565b915091505f5f306001600160a01b031684846040516113cd929190615116565b5f60405180830381855af49150503d805f8114611405576040519150601f19603f3d011682016040523d82523d5f602084013e61140a565b606091505b509150915081156112dd577fd3fddfd1276d1cc278f10907710a44474a32f917b2fcfa198f46ca7689215e2f8882604051611446929190615125565b60405180910390a15050604051630b9dfbed60e11b81526001600160a01b038516925063173bf7da915061147e9084906004016147b6565b5f604051808303815f87803b158015611495575f5ffd5b505af11580156114a7573d5f5f3e3d5ffd5b50505050505b505050565b336001600160a01b037f00000000000000000000000000000000000000000000000000000000000000001614806114e857503330145b61150557604051635629665f60e11b815260040160405180910390fd5b61151184848484612808565b604080518581526001600160a01b03851660208201527fd21d0b289f126c4b473ea641963e766833c2f13866e4ff480abd787c100ef123910160405180910390a150505050565b336001600160a01b037f000000000000000000000000000000000000000000000000000000000000000016148061158e57503330145b6115ab57604051635629665f60e11b815260040160405180910390fd5b5f6115ca5f5160206153295f395f51905f52546001600160a01b031690565b90506001600160a01b0381166116ad576115e685858585612310565b8585909161161957604051635f300b3960e11b815260048101929092526001600160a01b031660248201526044016108ad565b5050604080518681526001600160a01b03861660208201527f341347516a9de374859dfda710fa4828b2d48cb57d4fbe4c1149612b8e02276e910160405180910390a1600185036116745761166f8484846129ed565b610dee565b600285036116875761166f848484612abb565b6003850361169a5761166f848484612b54565b6004850361166f5761166f848484612c5b565b60405163d68f602560e01b81525f906001600160a01b0383169063d68f6025906116e1903390349086903690600401614646565b5f604051808303815f875af11580156116fc573d5f5f3e3d5ffd5b505050506040513d5f823e601f3d908101601f19168201604052611723919081019061470e565b905061173186868686612310565b8686909161176457604051635f300b3960e11b815260048101929092526001600160a01b031660248201526044016108ad565b5050604080518781526001600160a01b03871660208201527f341347516a9de374859dfda710fa4828b2d48cb57d4fbe4c1149612b8e02276e910160405180910390a1600186036117bf576117ba8585856129ed565b6117f8565b600286036117d2576117ba858585612abb565b600386036117e5576117ba858585612b54565b600486036117f8576117f8858585612c5b565b604051630b9dfbed60e11b81526001600160a01b0383169063173bf7da906118249084906004016147b6565b5f604051808303815f87803b15801561183b575f5ffd5b505af115801561184d573d5f5f3e3d5ffd5b50505050505050505050565b7f360894a13ba1a3210667c828492db98dca3e2076cc3735a920a3ca505d382bbc546001600160a01b03811661188d575030545b90565b5f5f7f00000000000000000000000000000000000000000000000000000000000000009050306020526370a082315f526020806024601c845afa601f3d11166020510291505090565b336001600160a01b037f0000000000000000000000000000000000000000000000000000000000000000161461192257604051635629665f60e11b815260040160405180910390fd5b61192f6004848484612310565b600484909161196357604051635f300b3960e11b815260048101929092526001600160a01b031660248201526044016108ad565b50505f61197a5f5160206153095f395f51905f5290565b6001600160a01b0385165f9081526004820160205260408120549192508190036119fa576001600160a01b0385165f81815260048401602090815260409182902042908190558251938452908301527f2841d18703faaff388732165e48fe431468531b1b1e626b1b7cbcbfc0d79c74091015b60405180910390a1610dee565b611a08620151806003615166565b611a12908261517d565b4210611a6b576001600160a01b0385165f81815260048401602090815260409182902042908190558251938452908301527fcbd44a75f6935b5837022648b6c8487db984701200c5381c7c0f8c2b1d69b9da91016119ed565b611a78620151808261517d565b4210611ae2576001600160a01b0385165f908152600483016020526040812055611aa3858585612c5b565b60408051600481526001600160a01b03871660208201527f341347516a9de374859dfda710fa4828b2d48cb57d4fbe4c1149612b8e02276e91016119ed565b6040517f07f2f2d200000000000000000000000000000000000000000000000000000000815260040160405180910390fd5b5f81600881901b6001600160f81b031982161580611b3f57506001600160f81b03198216600160f81b145b80611b5357506001600160f81b0319808316145b801561099857506001600160f81b03198116158061099857506001600160f81b03198116600160f81b14610998565b60015f9081525f5160206153095f395f51905f5260208190527ffe44ceacbf4f03c6ac19f86826dd265fa9ec25125e8b1766c207f24cd3bc73c7546001600160a01b03165b6001600160a01b03811615801590611be957506001600160a01b038116600114155b15611cbe57806001600160a01b031663d620c85a6040518163ffffffff1660e01b8152600401602060405180830381865afa925050508015611c48575060408051601f3d908101601f19168201909252611c4591810190614f7a565b60015b15611c9f577f29df37a6000000000000000000000000000000000000000000000000000000008101611c9d57507fd620c85a000000000000000000000000000000000000000000000000000000009392505050565b505b6001600160a01b039081165f9081526020839052604090205416611bc7565b506001600160e01b031992915050565b6060611cec335f5160206153095f395f51905f525b60010190612c98565b3390611d30576040517fb927fe5e0000000000000000000000000000000000000000000000000000000081526001600160a01b0390911660048201526024016108ad565b505f611d505f5160206153295f395f51905f52546001600160a01b031690565b90506001600160a01b038116611dfe57336002611d6d8282612cd0565b86600881901b6001600160f81b03198216611d9457611d8d888883612d52565b9550611df5565b6001600160f81b03198216600160f81b03611db457611d8d888883612ea7565b6001600160f81b031980831603611dd057611d8d888883612f20565b604051632e5bf3f960e21b81526001600160f81b0319831660048201526024016108ad565b50505050610a86565b60405163d68f602560e01b81525f906001600160a01b0383169063d68f602590611e32903390349086903690600401614646565b5f604051808303815f875af1158015611e4d573d5f5f3e3d5ffd5b505050506040513d5f823e601f3d908101601f19168201604052611e74919081019061470e565b9050336002611e838282612cd0565b87600881901b6001600160f81b03198216611eaa57611ea3898983612d52565b9650611ee6565b6001600160f81b03198216600160f81b03611eca57611ea3898983612ea7565b6001600160f81b031980831603611dd057611ea3898983612f20565b5050604051630b9dfbed60e11b81526001600160a01b038516925063173bf7da9150611f169084906004016147b6565b5f604051808303815f87803b158015611f2d575f5ffd5b505af1158015611f3f573d5f5f3e3d5ffd5b5050505050509392505050565b6040517f35567e1a00000000000000000000000000000000000000000000000000000000815230600482015277ffffffffffffffffffffffffffffffffffffffffffffffff821660248201525f907f00000000000000000000000000000000000000000000000000000000000000006001600160a01b0316906335567e1a90604401602060405180830381865afa158015611fe9573d5f5f3e3d5ffd5b505050506040513d601f19601f820116820180604052508101906110f49190614f7a565b336001600160a01b037f0000000000000000000000000000000000000000000000000000000000000000161461205657604051635629665f60e11b815260040160405180910390fd5b5f6120755f5160206153295f395f51905f52546001600160a01b031690565b90506001600160a01b0381166120ed5783600881901b6001600160f81b031982166120aa576120a585858361306e565b6120e6565b6001600160f81b03198216600160f81b036120ca576120a585858361313a565b6001600160f81b031980831603611dd0576120a58585836131a7565b5050611061565b60405163d68f602560e01b81525f906001600160a01b0383169063d68f602590612121903390349086903690600401614646565b5f604051808303815f875af115801561213c573d5f5f3e3d5ffd5b505050506040513d5f823e601f3d908101601f19168201604052612163919081019061470e565b905084600881901b6001600160f81b0319821661218a5761218586868361306e565b6121c6565b6001600160f81b03198216600160f81b036121aa5761218586868361313a565b6001600160f81b031980831603611dd0576121858686836131a7565b5050604051630b9dfbed60e11b81526001600160a01b0383169063173bf7da906110329084906004016147b6565b60605f6110df7f0bb70095b32b9671358306b0339b4c06e7cbd8cb82505941fba30d1eb5b82f0185856126d8565b336001600160a01b037f000000000000000000000000000000000000000000000000000000000000000016148061225857503330145b61227557604051635629665f60e11b815260040160405180910390fd5b6110618484848461324b565b5f6001820361229257506001919050565b600282036122a257506001919050565b600382036122b257506001919050565b600482036122c257506001919050565b816122cf57506001919050565b505f919050565b919050565b6060604080513681016020019091529050601436018152365f602083013760408051601481019091523360601b905292915050565b5f6001850361232957612322846123cf565b9050610998565b6002850361233a576123228461331d565b600385036123b7575f600483106123685761235860045f8587614c8f565b61236191615190565b905061236b565b505f5b6001600160e01b0319165f9081527f0bb70095b32b9671358306b0339b4c06e7cbd8cb82505941fba30d1eb5b82f0260205260409020546001600160a01b038581169116149050610998565b600485036123c85761232284613335565b505f610998565b5f6110f45f5160206153095f395f51905f5283612c98565b365f5f5f365f365f6123f98a8a61336e565b909e509c50949a5092985090965094509250905061242461241d87878e88886133c2565b8383613457565b61245a576040517f46fdc33300000000000000000000000000000000000000000000000000000000815260040160405180910390fd5b61246685878686612808565b505050505050935093915050565b7f00000000000000000000000000000000000000000000000000000000000000007f000000000000000000000000000000000000000000000000000000000000000030147f000000000000000000000000000000000000000000000000000000000000000046141661188d5750604080517f8b73c3c69bb8fe3d512ecc4cf759cc79239f7b179b0ffacaa9a75d522b39400f81527f000000000000000000000000000000000000000000000000000000000000000060208201527f00000000000000000000000000000000000000000000000000000000000000009181019190915246606082015230608082015260a0902090565b5f5160206153095f395f51905f526125a07f0bb70095b32b9671358306b0339b4c06e7cbd8cb82505941fba30d1eb5b82f0161356b565b610d028161356b565b5f60016125c5815f5160206153095f395f51905f525b906135df565b6001600160a01b03161415801561098357505f6125f060015f5160206153095f395f51905f526125bf565b6001600160a01b03161415905090565b7f000000000000000000000000000000000000000000000000000000000000000030810361263557639f03a0265f526004601cfd5b61263e84613632565b8360601b60601c93506352d1902d6001527f360894a13ba1a3210667c828492db98dca3e2076cc3735a920a3ca505d382bbc80602060016004601d895afa5114612690576355299b496001526004601dfd5b847fbc7cd75a20ee27fd9adebab32041f755214dbc6bffa90cc0225b39da2e5c2d3b5f38a2849055811561106157604051828482375f388483885af4610dee573d5f823e3d81fd5b60605f6126e6858585613685565b90969095509350505050565b7f00000000000000000000000000000000000000000000000000000000000000007f000000000000000000000000000000000000000000000000000000000000000030147f00000000000000000000000000000000000000000000000000000000000000004614166127e55750604080517f8b73c3c69bb8fe3d512ecc4cf759cc79239f7b179b0ffacaa9a75d522b39400f81527f000000000000000000000000000000000000000000000000000000000000000060208201527f00000000000000000000000000000000000000000000000000000000000000009181019190915246606082015230608082015260a090205b6719010000000000005f5280601a5281603a52604260182090505f603a52919050565b5f6128275f5160206153295f395f51905f52546001600160a01b031690565b90506001600160a01b0381166128d6576001600160a01b03841661285e57604051635316c18d60e01b815260040160405180910390fd5b600185036128715761166f848484613846565b600285036128845761166f84848461391f565b600385036128975761166f8484846139dd565b600485036128aa5761166f848484613d31565b846128ba5761166f848484613e88565b6040516304c1896960e11b8152600481018690526024016108ad565b60405163d68f602560e01b81525f906001600160a01b0383169063d68f60259061290a903390349086903690600401614646565b5f604051808303815f875af1158015612925573d5f5f3e3d5ffd5b505050506040513d5f823e601f3d908101601f1916820160405261294c919081019061470e565b90506001600160a01b03851661297557604051635316c18d60e01b815260040160405180910390fd5b60018603612988576117ba858585613846565b6002860361299b576117ba85858561391f565b600386036129ae576117ba8585856139dd565b600486036129c1576117ba858585613d31565b856129d1576117ba858585613e88565b6040516304c1896960e11b8152600481018790526024016108ad565b5f5160206153095f395f51905f525f80612a09858501866150c9565b9092509050612a19838388613fe1565b612a216125a9565b612a57576040517fcc319d8400000000000000000000000000000000000000000000000000000000815260040160405180910390fd5b6114a75a5f5f638a91b0e360e01b85604051602401612a7691906147b6565b60408051601f198184030181529190526020810180516001600160e01b03166001600160e01b0319909316929092179091526001600160a01b038b16939291906140b4565b5f80612ac9838501856150c9565b91509150612af08286612ae65f5160206153095f395f51905f5290565b6001019190613fe1565b61130f5a5f5f638a91b0e360e01b85604051602401612b0f91906147b6565b60408051601f198184030181529190526020810180516001600160e01b03166001600160e01b0319909316929092179091526001600160a01b038a16939291906140b4565b604080518082019091525f80825260208201525f5160206153095f395f51905f526002015f612b866004828688614c8f565b612b8f91615190565b6001600160e01b03191681526020808201929092526040015f2082518154939092015160f81c600160a01b0274ffffffffffffffffffffffffffffffffffffffffff199093166001600160a01b0390921691909117919091179055610dee5a5f80638a91b0e360e01b612c05866004818a614c8f565b604051602401612c169291906151c5565b60408051601f198184030181529190526020810180516001600160e01b03166001600160e01b0319909316929092179091526001600160a01b038816939291906140b4565b5f5160206153295f395f51905f5280546001600160a01b0319169055610dee5a5f5f638a91b0e360e01b8686604051602401612c169291906151c5565b5f60016001600160a01b03831614801590610a885750506001600160a01b039081165f90815260209290925260409091205416151590565b5f546001600160a01b031680156114ad576040517f96fb72170000000000000000000000000000000000000000000000000000000081526001600160a01b038481166004830152602482018490528216906396fb7217906044015f6040518083038186803b158015612d40575f5ffd5b505afa15801561130f573d5f5f3e3d5ffd5b60605f5f365f612d62888861413a565b6040805160018082528183019092529498509296509094509250816020015b6060815260200190600190039081612d8157509095505f90506001600160f81b03198716612dd757612db58585858561418a565b865f81518110612dc757612dc76151d8565b6020026020010181905250612e9b565b6001600160f81b03198716600160f81b03612e7657612df8858585856141bd565b875f81518110612e0a57612e0a6151d8565b6020908102919091010152905080612e71577fb5282692b8c578af7fb880895d599035496b5e64d1f14bf428a1ed3bc406f6628383885f81518110612e5157612e516151d8565b6020026020010151604051612e68939291906151ec565b60405180910390a15b612e9b565b6040516308c3ee0360e11b81526001600160f81b0319881660048201526024016108ad565b50505050509392505050565b6060833584016020810190356001600160f81b03198416612ed357612ecc82826141eb565b9250612f17565b6001600160f81b03198416600160f81b03612ef257612ecc82826142c1565b6040516308c3ee0360e11b81526001600160f81b0319851660048201526024016108ad565b50509392505050565b60605f365f612f2f87876143f8565b6040805160018082528183019092529396509194509250816020015b6060815260200190600190039081612f4b57509094505f90506001600160f81b03198616612fa057612f7e84848461442e565b855f81518110612f9057612f906151d8565b6020026020010181905250613063565b6001600160f81b03198616600160f81b0361303e57612fc084848461445f565b865f81518110612fd257612fd26151d8565b6020908102919091010152905080613039577f5bd4c60b4b38b664d8fb5944eb974e3d85083d79afe5ce934ccabcc913707c108383875f81518110613019576130196151d8565b6020026020010151604051613030939291906151ec565b60405180910390a15b613063565b6040516308c3ee0360e11b81526001600160f81b0319871660048201526024016108ad565b505050509392505050565b5f5f365f61307c878761413a565b929650909450925090506001600160f81b031985166130a6576130a18484848461448b565b61130f565b6001600160f81b03198516600160f81b03613115575f5f6130c9868686866141bd565b915091508161310e577fb5282692b8c578af7fb880895d599035496b5e64d1f14bf428a1ed3bc406f662848483604051613105939291906151ec565b60405180910390a15b505061130f565b6040516308c3ee0360e11b81526001600160f81b0319861660048201526024016108ad565b823583016020810190356001600160f81b0319831661315d5761166f82826144af565b6001600160f81b03198316600160f81b036131825761317c82826142c1565b50610dee565b6040516308c3ee0360e11b81526001600160f81b0319841660048201526024016108ad565b5f365f6131b486866143f8565b919450925090506001600160f81b031984166131da576131d583838361450f565b613243565b6001600160f81b03198416600160f81b03612ef2575f5f6131fc85858561445f565b91509150816114a7577f5bd4c60b4b38b664d8fb5944eb974e3d85083d79afe5ce934ccabcc913707c10848483604051613238939291906151ec565b60405180910390a150505b505050505050565b5f80546001600160a01b0319166001600160a01b038616908117909155156132e4576040517ff05c04e10000000000000000000000000000000000000000000000000000000081526001600160a01b0385169063f05c04e1906132b690849087908790600401615211565b5f604051808303815f87803b1580156132cd575f5ffd5b505af11580156132df573d5f5f3e3d5ffd5b505050505b6040516001600160a01b038516907ff98c8404c5b1bfef2e6ba9233c6e88845aedfd36eea8b192725d8c199571cf32905f90a250505050565b5f6110f4825f5160206153095f395f51905f52611ce3565b5f816001600160a01b031661335e5f5160206153295f395f51905f52546001600160a01b031690565b6001600160a01b03161492915050565b813560601c6014830135603880850190603486013560e090811c91603c838901818101939281013590921c9136915f9184018b9003016133b08a82818e614c8f565b92509250509295985092959890939650565b5f6040518060800160405280605b8152602001615349605b91398051906020012086868686866040516133f6929190615116565b60405190819003812061343695949392916020019485526001600160a01b0393909316602085015260408401919091526060830152608082015260a00190565b60405160208183030381529060405280519060200120905095945050505050565b5f806134666014828587614c8f565b61346f91614cb6565b60601c905061347d816123cf565b6134a55760405163342cf00f60e11b81526001600160a01b03821660048201526024016108ad565b5f6134af866126f2565b90506001600160a01b03821663f551e2ee30836134cf886014818c614c8f565b6040518563ffffffff1660e01b81526004016134ee9493929190614646565b602060405180830381865afa925050508015613527575060408051601f3d908101601f1916820190925261352491810190614d03565b60015b613535575f92505050610a88565b6001600160e01b0319167f1626ba7e00000000000000000000000000000000000000000000000000000000149250610a88915050565b60015f908152602082905260409020546001600160a01b0316156135bb576040517f53c85e6600000000000000000000000000000000000000000000000000000000815260040160405180910390fd5b60015f818152602092909252604090912080546001600160a01b0319169091179055565b5f6001600160a01b03821661361257604051637c84ecfb60e01b81526001600160a01b03831660048201526024016108ad565b506001600160a01b039081165f9081526020929092526040909120541690565b336001600160a01b037f000000000000000000000000000000000000000000000000000000000000000016148061366857503330145b610d0257604051635629665f60e11b815260040160405180910390fd5b60605f6001600160a01b0384166001148015906136a957506136a78585612c98565b155b156136d257604051637c84ecfb60e01b81526001600160a01b03851660048201526024016108ad565b825f0361370b576040517ff725081700000000000000000000000000000000000000000000000000000000815260040160405180910390fd5b8267ffffffffffffffff81111561372457613724614678565b60405190808252806020026020018201604052801561374d578160200160208202803683370190505b506001600160a01b038086165f90815260208890526040812054929450911691505b6001600160a01b0382161580159061379157506001600160a01b038216600114155b801561379c57508381105b156137f557818382815181106137b4576137b46151d8565b6001600160a01b039283166020918202929092018101919091529281165f9081529287905260409092205490911690806137ed81615268565b91505061376f565b6001600160a01b03821660011480159061380e57505f81115b1561383a578261381f600183615280565b8151811061382f5761382f6151d8565b602002602001015191505b80835250935093915050565b8260016138538282612cd0565b60405163ecd0596160e01b8152600160048201526001600160a01b0386169063ecd0596190602401602060405180830381865afa158015613896573d5f5f3e3d5ffd5b505050506040513d601f19601f820116820180604052508101906138ba9190615293565b6138da576040516369c9a24560e11b8152600160048201526024016108ad565b6138f15f5160206153095f395f51905f5286614531565b6040516306d61fe760e41b81526001600160a01b03861690636d61fe709061103290879087906004016151c5565b82600261392c8282612cd0565b60405163ecd0596160e01b8152600260048201526001600160a01b0386169063ecd0596190602401602060405180830381865afa15801561396f573d5f5f3e3d5ffd5b505050506040513d601f19601f820116820180604052508101906139939190615293565b6139b3576040516369c9a24560e11b8152600260048201526024016108ad565b6138f17f0bb70095b32b9671358306b0339b4c06e7cbd8cb82505941fba30d1eb5b82f0186614531565b8260036139ea8282612cd0565b60405163ecd0596160e01b8152600360048201526001600160a01b0386169063ecd0596190602401602060405180830381865afa158015613a2d573d5f5f3e3d5ffd5b505050506040513d601f19601f82011682018060405250810190613a519190615293565b613a71576040516369c9a24560e11b8152600360048201526024016108ad565b5f613a7f6004828688614c8f565b613a8891615190565b90505f85856004818110613a9e57613a9e6151d8565b909101356001600160f81b031916915050801580613ac957506001600160f81b03198116607f60f91b145b613aff576040517f867a1dcf00000000000000000000000000000000000000000000000000000000815260040160405180910390fd5b5f613b0d866005818a614c8f565b8080601f0160208091040260200160405190810160405280939291908181526020018383808284375f920191909152509293505050506001600160e01b031983166306d61fe760e41b1480613b7257506001600160e01b03198316638a91b0e360e01b145b80613b8557506001600160e01b03198316155b15613bbc576040517fc001660b00000000000000000000000000000000000000000000000000000000815260040160405180910390fd5b6001600160e01b031983165f9081527f0bb70095b32b9671358306b0339b4c06e7cbd8cb82505941fba30d1eb5b82f02602052604090205483906001600160a01b031615613c43576040517fa56a04dd0000000000000000000000000000000000000000000000000000000081526001600160e01b031990911660048201526024016108ad565b506040805180820182526001600160a01b038a81168083526001600160f81b0319861660208085019182526001600160e01b031989165f9081527f0bb70095b32b9671358306b0339b4c06e7cbd8cb82505941fba30d1eb5b82f0290915285902093518454915160f81c600160a01b0274ffffffffffffffffffffffffffffffffffffffffff199092169316929092179190911790915590516306d61fe760e41b8152636d61fe7090613cfa9084906004016147b6565b5f604051808303815f87803b158015613d11575f5ffd5b505af1158015613d23573d5f5f3e3d5ffd5b505050505050505050505050565b826004613d3e8282612cd0565b60405163ecd0596160e01b81526004808201526001600160a01b0386169063ecd0596190602401602060405180830381865afa158015613d80573d5f5f3e3d5ffd5b505050506040513d601f19601f82011682018060405250810190613da49190615293565b613dc3576040516369c9a24560e11b81526004818101526024016108ad565b5f613de25f5160206153295f395f51905f52546001600160a01b031690565b9050806001600160a01b03811615613e32576040517f741cbe030000000000000000000000000000000000000000000000000000000081526001600160a01b0390911660048201526024016108ad565b505f5160206153295f395f51905f5280546001600160a01b0319166001600160a01b0388161790556040516306d61fe760e41b81526001600160a01b03871690636d61fe709061182490889088906004016151c5565b813582016020818101913590848101358501908101903582818114613ed9576040517fb4fa3fb300000000000000000000000000000000000000000000000000000000815260040160405180910390fd5b5f5b8181101561105b575f868683818110613ef657613ef66151d8565b90506020020135905060018103613f3957613f348a868685818110613f1d57613f1d6151d8565b9050602002810190613f2f9190614e6b565b613846565b613fd8565b60028103613f6e57613f348a868685818110613f5757613f576151d8565b9050602002810190613f699190614e6b565b61391f565b60038103613fa357613f348a868685818110613f8c57613f8c6151d8565b9050602002810190613f9e9190614e6b565b6139dd565b60048103613fd857613fd88a868685818110613fc157613fc16151d8565b9050602002810190613fd39190614e6b565b613d31565b50600101613edb565b6001600160a01b038116158061400057506001600160a01b0381166001145b1561402957604051637c84ecfb60e01b81526001600160a01b03831660048201526024016108ad565b6001600160a01b038281165f9081526020859052604090205481169082161461407057604051637c84ecfb60e01b81526001600160a01b03821660048201526024016108ad565b6001600160a01b039081165f8181526020949094526040808520805494841686529085208054949093166001600160a01b0319948516179092559092528154169055565b5f60605f5f5f8661ffff1667ffffffffffffffff8111156140d7576140d7614678565b6040519080825280601f01601f191660200182016040528015614101576020820181803683370190505b5090505f5f8751602089018b8e8ef191503d925086831115614121578692505b828152825f602083013e90999098509650505050505050565b5f80368161414b6014828789614c8f565b61415491614cb6565b60601c9350614167603460148789614c8f565b614170916152b2565b925061417f8560348189614c8f565b949793965094505050565b604051818382375f38838387895af16141a5573d5f823e3d81fd5b3d8152602081013d5f823e3d01604052949350505050565b6040515f90828482375f388483888a5af191503d8152602081013d5f823e3d81016040525094509492505050565b60608167ffffffffffffffff81111561420657614206614678565b60405190808252806020026020018201604052801561423957816020015b60608152602001906001900390816142245790505b509050365f5b838110156142b957848482818110614259576142596151d8565b905060200281019061426b91906152cf565b915061429461427d60208401846152ed565b602084013561428f6040860186614e6b565b61418a565b8382815181106142a6576142a66151d8565b602090810291909101015260010161423f565b505092915050565b60608167ffffffffffffffff8111156142dc576142dc614678565b60405190808252806020026020018201604052801561430f57816020015b60608152602001906001900390816142fa5790505b509050365f5b838110156142b95784848281811061432f5761432f6151d8565b905060200281019061434191906152cf565b91505f61436b61435460208501856152ed565b60208501356143666040870187614e6b565b6141bd565b85848151811061437d5761437d6151d8565b60209081029190910101529050806143ef577fb5282692b8c578af7fb880895d599035496b5e64d1f14bf428a1ed3bc406f6626143bd6040850185614e6b565b8685815181106143cf576143cf6151d8565b60200260200101516040516143e6939291906151ec565b60405180910390a15b50600101614315565b5f36816144086014828688614c8f565b61441191614cb6565b60601c92506144238460148188614c8f565b915091509250925092565b604051818382375f388383875af4614448573d5f823e3d81fd5b3d8152602081013d5f823e3d016040529392505050565b6040515f90828482375f388483885af491503d8152602081013d5f823e3d810160405250935093915050565b604051818382375f38838387895af16144a6573d5f823e3d81fd5b01604052505050565b365f5b82811015611061578383828181106144cc576144cc6151d8565b90506020028101906144de91906152cf565b91506145076144f060208401846152ed565b60208401356145026040860186614e6b565b61448b565b6001016144b2565b604051818382375f388383875af4614529573d5f823e3d81fd5b016040525050565b6001600160a01b038116158061455057506001600160a01b0381166001145b1561457957604051637c84ecfb60e01b81526001600160a01b03821660048201526024016108ad565b6001600160a01b038181165f9081526020849052604090205416156145d5576040517f40d3d1a40000000000000000000000000000000000000000000000000000000081526001600160a01b03821660048201526024016108ad565b60015f818152602093909352604080842080546001600160a01b039485168087529286208054959091166001600160a01b03199586161790559190935280549091169091179055565b81835281816020850137505f828201602090810191909152601f909101601f19169091010190565b6001600160a01b0385168152836020820152606060408201525f61466e60608301848661461e565b9695505050505050565b634e487b7160e01b5f52604160045260245ffd5b604051610120810167ffffffffffffffff811182821017156146b0576146b0614678565b60405290565b604051601f8201601f1916810167ffffffffffffffff811182821017156146df576146df614678565b604052919050565b5f67ffffffffffffffff82111561470057614700614678565b50601f01601f191660200190565b5f6020828403121561471e575f5ffd5b815167ffffffffffffffff811115614734575f5ffd5b8201601f81018413614744575f5ffd5b8051614757614752826146e7565b6146b6565b81815285602083850101111561476b575f5ffd5b8160208401602083015e5f91810160200191909152949350505050565b5f81518084528060208401602086015e5f602082860101526020601f19601f83011685010191505092915050565b602081525f610a886020830184614788565b6001600160a01b0381168114610d02575f5ffd5b80356122d6816147c8565b5f5f83601f8401126147f7575f5ffd5b50813567ffffffffffffffff81111561480e575f5ffd5b602083019150836020828501011115614825575f5ffd5b9250929050565b5f5f5f5f6060858703121561483f575f5ffd5b843593506020850135614851816147c8565b9250604085013567ffffffffffffffff81111561486c575f5ffd5b614878878288016147e7565b95989497509550505050565b5f5f5f60408486031215614896575f5ffd5b83359250602084013567ffffffffffffffff8111156148b3575f5ffd5b6148bf868287016147e7565b9497909650939450505050565b5f61012082840312156148dd575f5ffd5b50919050565b5f5f5f606084860312156148f5575f5ffd5b833567ffffffffffffffff81111561490b575f5ffd5b614917868287016148cc565b9660208601359650604090950135949350505050565b6001600160e01b031981168114610d02575f5ffd5b5f60208284031215614952575f5ffd5b8135610a888161492d565b5f5f6020838503121561496e575f5ffd5b823567ffffffffffffffff811115614984575f5ffd5b6126e6858286016147e7565b5f5f604083850312156149a1575f5ffd5b82356149ac816147c8565b946020939093013593505050565b5f5f5f604084860312156149cc575f5ffd5b83356149d7816147c8565b9250602084013567ffffffffffffffff8111156148b3575f5ffd5b604080825283519082018190525f9060208501906060840190835b81811015614a345783516001600160a01b0316835260209384019390920191600101614a0d565b505080925050506001600160a01b03831660208301529392505050565b5f60208284031215614a61575f5ffd5b5035919050565b6001600160f81b03198816815260e060208201525f614a8a60e0830189614788565b8281036040840152614a9c8189614788565b606084018890526001600160a01b038716608085015260a0840186905283810360c0850152845180825260208087019350909101905f5b81811015614af1578351835260209384019390920191600101614ad3565b50909b9a5050505050505050505050565b5f5f60408385031215614b13575f5ffd5b823567ffffffffffffffff811115614b29575f5ffd5b614b35858286016148cc565b95602094909401359450505050565b5f602082016020835280845180835260408501915060408160051b8601019250602086015f5b82811015614b9b57603f19878603018452614b86858351614788565b94506020938401939190910190600101614b6a565b50929695505050505050565b5f60208284031215614bb7575f5ffd5b813577ffffffffffffffffffffffffffffffffffffffffffffffff81168114610a88575f5ffd5b5f5f5f5f60608587031215614bf1575f5ffd5b8435614bfc816147c8565b9350602085013567ffffffffffffffff811115614c17575f5ffd5b8501601f81018713614c27575f5ffd5b803567ffffffffffffffff811115614c3d575f5ffd5b8760208260051b8401011115614c51575f5ffd5b60209190910193509150604085013560ff81168114614c6e575f5ffd5b939692955090935050565b5f82518060208501845e5f920191825250919050565b5f5f85851115614c9d575f5ffd5b83861115614ca9575f5ffd5b5050820193919092039150565b80356bffffffffffffffffffffffff198116906014841015614cfc576bffffffffffffffffffffffff196bffffffffffffffffffffffff198560140360031b1b82161691505b5092915050565b5f60208284031215614d13575f5ffd5b8151610a888161492d565b5f82601f830112614d2d575f5ffd5b8135614d3b614752826146e7565b818152846020838601011115614d4f575f5ffd5b816020850160208301375f918101602001919091529392505050565b5f6101208236031215614d7c575f5ffd5b614d8461468c565b614d8d836147dc565b815260208381013590820152604083013567ffffffffffffffff811115614db2575f5ffd5b614dbe36828601614d1e565b604083015250606083013567ffffffffffffffff811115614ddd575f5ffd5b614de936828601614d1e565b6060830152506080838101359082015260a0808401359082015260c0808401359082015260e083013567ffffffffffffffff811115614e26575f5ffd5b614e3236828601614d1e565b60e08301525061010083013567ffffffffffffffff811115614e52575f5ffd5b614e5e36828601614d1e565b6101008301525092915050565b5f5f8335601e19843603018112614e80575f5ffd5b83018035915067ffffffffffffffff821115614e9a575f5ffd5b602001915036819003821315614825575f5ffd5b60408152614ec86040820184516001600160a01b03169052565b602083015160608201525f60408401516101206080840152614eee610160840182614788565b90506060850151603f198483030160a0850152614f0b8282614788565b915050608085015160c084015260a085015160e084015260c085015161010084015260e0850151603f1984830301610120850152614f498282614788565b915050610100850151603f1984830301610140850152614f698282614788565b925050508260208301529392505050565b5f60208284031215614f8a575f5ffd5b5051919050565b5f5f8335601e19843603018112614fa6575f5ffd5b830160208101925035905067ffffffffffffffff811115614fc5575f5ffd5b803603821315614825575f5ffd5b614fed82614fe0836147dc565b6001600160a01b03169052565b602081810135908301525f6150056040830183614f91565b610120604086015261501c6101208601828461461e565b91505061502c6060840184614f91565b858303606087015261503f83828461461e565b6080868101359088015260a0808701359088015260c08087013590880152925061506f91505060e0840184614f91565b85830360e087015261508283828461461e565b92505050615094610100840184614f91565b85830361010087015261466e83828461461e565b604081525f6150ba6040830185614fd3565b90508260208301529392505050565b5f5f604083850312156150da575f5ffd5b82356150e5816147c8565b9150602083013567ffffffffffffffff811115615100575f5ffd5b61510c85828601614d1e565b9150509250929050565b818382375f9101908152919050565b604081525f6151376040830185614fd3565b82810360208401526151498185614788565b95945050505050565b634e487b7160e01b5f52601160045260245ffd5b80820281158282048414176110f4576110f4615152565b808201808211156110f4576110f4615152565b80356001600160e01b03198116906004841015614cfc576001600160e01b0319808560040360031b1b82161691505092915050565b602081525f61099860208301848661461e565b634e487b7160e01b5f52603260045260245ffd5b604081525f6151ff60408301858761461e565b828103602084015261466e8185614788565b60ff8416815260406020820181905281018290525f8360608301825b8581101561525d578235615240816147c8565b6001600160a01b031682526020928301929091019060010161522d565b509695505050505050565b5f6001820161527957615279615152565b5060010190565b818103818111156110f4576110f4615152565b5f602082840312156152a3575f5ffd5b81518015158114610a88575f5ffd5b803560208310156110f4575f19602084900360031b1b1692915050565b5f8235605e198336030181126152e3575f5ffd5b9190910192915050565b5f602082840312156152fd575f5ffd5b8135610a88816147c856fe0bb70095b32b9671358306b0339b4c06e7cbd8cb82505941fba30d1eb5b82f000bb70095b32b9671358306b0339b4c06e7cbd8cb82505941fba30d1eb5b82f034d6f64756c65456e61626c654d6f64652861646472657373206d6f64756c652c75696e74323536206d6f64756c65547970652c6279746573333220757365724f70486173682c6279746573333220696e6974446174614861736829a164736f6c634300081b000a","linkReferences":{}},"methodIdentifiers":{"DOMAIN_SEPARATOR()":"3644e515","accountId()":"9cfd7cff","addDeposit()":"4a58db19","eip712Domain()":"84b0196e","emergencyUninstallHook(address,bytes)":"cd64f80a","entryPoint()":"b0d691fe","execute(bytes32,bytes)":"e9ae5c53","executeFromExecutor(bytes32,bytes)":"d691c964","executeUserOp((address,uint256,bytes,bytes,bytes32,uint256,bytes32,bytes,bytes),bytes32)":"8dd7712f","getActiveHook()":"0a664dba","getDeposit()":"c399ec88","getExecutorsPaginated(address,uint256)":"ea5f61d0","getFallbackHandlerBySelector(bytes4)":"481ddd23","getImplementation()":"aaf10f42","getValidatorsPaginated(address,uint256)":"5faac46b","hashTypedData(bytes32)":"6575f6aa","initializeAccount(bytes)":"4b6a1419","installModule(uint256,address,bytes)":"9517e29f","isModuleInstalled(uint256,address,bytes)":"112d3a7d","isValidSignature(bytes32,bytes)":"1626ba7e","nonce(uint192)":"d86f2b3c","proxiableUUID()":"52d1902d","registry()":"7b103999","setRegistry(address,address[],uint8)":"eab77e17","supportsExecutionMode(bytes32)":"d03c7914","supportsModule(uint256)":"f2dc691d","supportsNestedTypedDataSign()":"d620c85a","uninstallModule(uint256,address,bytes)":"a71763a8","upgradeToAndCall(address,bytes)":"4f1ef286","validateUserOp((address,uint256,bytes,bytes,bytes32,uint256,bytes32,bytes,bytes),bytes32,uint256)":"19822f7c","withdrawDepositTo(address,uint256)":"4d44560d"},"id":0}